:100000000C9461000C947E000C947E000C947E0095
:100010000C947E000C947E000C947E000C947E0068
:100020000C947E000C947E000C947E000C947E0058
:100030000C947E000C947E000C947E000C947E0048
:100040000C9453020C947E000C947E000C947E0061
:100050000C947E000C947E000C947E000C947E0028
:100060000C947E000C947E00000000002400270009
:100070002A0000000000250028002B0000000000DE
:1000800023002600290004040404040404040202DA
:100090000202020203030303030301020408102007
:1000A0004080010204081020010204081020000012
:1000B0000007000201000003040600000000000029
:1000C000000011241FBECFEFD8E0DEBFCDBF11E08E
:1000D000A0E0B1E0E8E6F6E002C005900D92A8309D
:1000E000B107D9F711E0A8E0B1E001C01D92A53138
:1000F000B107E1F70E94FB010C9480000C94000012
:10010000F8940C9432036F927F928F929F92AF92E9
:10011000BF92CF92DF92EF92FF920F931F9380E0F6
:100120000E94FF003C01882477FC8094982C00D02A
:1001300000D08FEF90E0A0E0B0E0EDB7FEB7818394
:100140009283A383B483C401B30120E030E040E094
:1001500050E0E12CF4E0FF2E012D112DAA24BB2448
:1001600065010E940A027093090160930801EDB7CE
:10017000FEB71182128213821482C401B30120E0FF
:1001800030E040E050E0EFEFAE2EB12CC12CD12C8E
:100190000E940A0270930B0160930A010F900F9066
:1001A0000F900F90609108017091090180910001FA
:1001B0000E94210160910A0170910B01809102015E
:1001C0000E9421011F910F91FF90EF90DF90CF903F
:1001D000BF90AF909F908F907F906F900895809187
:1001E000000161E00E9481018091020161E00E94B2
:1001F00081018091040161E00E9481010895982F9E
:100200008E3008F09E509770809106018295880F7D
:10021000880F807C892B80937C0080917A00806499
:1002200080937A0080917A0086FDFCCF209178003F
:1002300040917900942F80E030E0282B392BC901C0
:1002400008951F93CF93DF93182FEB0161E00E9475
:100250008101209709F44AC0CF3FD10509F449C074
:10026000E12FF0E0E255FF4F84918330C1F08430FC
:1002700028F4813051F08230B1F50CC0863019F18C
:10028000873049F1843079F514C084B5806884BD25
:10029000C7BD33C084B5806284BDC8BD2EC0809107
:1002A0008000806880938000D0938900C09388008C
:1002B00024C080918000806280938000D0938B0066
:1002C000C0938A001AC08091B00080688093B0000B
:1002D000C093B30012C08091B00080628093B000E0
:1002E000C093B4000AC0C038D1051CF4812F60E06F
:1002F00002C0812F61E00E94A701DF91CF911F9181
:100300000895482F50E0CA0186569F4FFC01249162
:100310004A575F4FFA0184918823C1F0E82FF0E03B
:10032000EE0FFF1FE859FF4FA591B491662341F4EA
:100330009FB7F8948C91209582238C939FBF08954A
:100340009FB7F8948C91822B8C939FBF0895482F70
:1003500050E0CA0182559F4FFC012491CA01865684
:100360009F4FFC0194914A575F4FFA013491332318
:1003700009F440C0222351F1233071F0243028F4D5
:100380002130A1F0223011F514C02630B1F0273011
:10039000C1F02430D9F404C0809180008F7703C06D
:1003A000809180008F7D8093800010C084B58F770E
:1003B00002C084B58F7D84BD09C08091B0008F7765
:1003C00003C08091B0008F7D8093B000E32FF0E0F8
:1003D000EE0FFF1FEE58FF4FA591B4912FB7F89481
:1003E000662321F48C919095892302C08C91892BEE
:1003F0008C932FBF0895CF93DF930E949B020E949E
:10040000EF00C0E0D0E00E9483002097E1F30E945B
:100410000000F9CF2F923F924F925F926F927F929E
:100420008F929F92AF92BF92CF92DF92EF92FF9204
:100430000F931F93DF93CF93CDB7DEB73B014C01F2
:1004400019012A016D897E898F89988D6A197B0926
:100450008C099D09621A730A840A950AA401930102
:100460000E94D602E218F30804091509A8019701B1
:100470000E94F5022A0D3B1D4C1D5D1DB901CA01EC
:10048000CF91DF911F910F91FF90EF90DF90CF9070
:10049000BF90AF909F908F907F906F905F904F90A4
:1004A0003F902F9008951F920F920FB60F92112434
:1004B0002F933F938F939F93AF93BF93809110019E
:1004C00090911101A0911201B0911301309114018A
:1004D0000196A11DB11D232F2D5F2D3720F02D5723
:1004E0000196A11DB11D20931401809310019093DA
:1004F0001101A0931201B093130180910C0190910E
:100500000D01A0910E01B0910F010196A11DB11D29
:1005100080930C0190930D01A0930E01B0930F01F5
:10052000BF91AF919F918F913F912F910F900FBEEF
:100530000F901F901895789484B5826084BD84B51F
:10054000816084BD85B5826085BD85B5816085BDCE
:10055000EEE6F0E0808181608083E1E8F0E01082E7
:10056000808182608083808181608083E0E8F0E028
:10057000808181608083E1EBF0E080818460808312
:10058000E0EBF0E0808181608083EAE7F0E0808149
:1005900084608083808182608083808181608083A9
:1005A0008081806880831092C1000895629FD0018D
:1005B000739FF001829FE00DF11D649FE00DF11D1E
:1005C000929FF00D839FF00D749FF00D659FF00DCD
:1005D0009927729FB00DE11DF91F639FB00DE11DBA
:1005E000F91FBD01CF011124089597FB092E05269F
:1005F0000ED057FD04D014D00AD0001C38F450950A
:100600004095309521953F4F4F4F5F4F0895F6F736
:1006100090958095709561957F4F8F4F9F4F08956E
:10062000A1E21A2EAA1BBB1BFD010DC0AA1FBB1FF6
:10063000EE1FFF1FA217B307E407F50720F0A21B68
:10064000B30BE40BF50B661F771F881F991F1A94D5
:1006500069F760957095809590959B01AC01BD01FF
:08066000CF010895F894FFCFCB
:0806680009000A000B0001006B
:00000001FF
