:100000000C9465000C948D000C948D000C948D0064
:100010000C948D000C948D000C948D000C948D002C
:100020000C948D000C948D000C948D000C94A711F1
:100030000C948D000C948D000C948D000C948D000C
:100040000C9443080C948D000C94340A0C947B0A95
:100050000C948D000C948D000C948D000C948D00EC
:100060000C94D3130C948D00000000002400270092
:100070002A0000000000250028002B0000000000DE
:1000800023002600290004040404040404040202DA
:100090000202020203030303030301020408102007
:1000A0004080010204081020010204081020000012
:1000B0000007000201000003040600000000000029
:1000C00000007902F20BF80D9E1211241FBECFEF33
:1000D000D8E0DEBFCDBF11E0A0E0B1E0EEE8FCE289
:1000E00002C005900D92AA3EB107D9F714E0AAEE1E
:1000F000B1E001C01D92AB36B107E1F710E0CAECE8
:10010000D0E004C02297FE010E944116C23CD107F4
:10011000C9F70E94420C0C9491010C940000CF93FB
:10012000DF93BC018230910510F462E070E0A09191
:100130006904B0916A04ED01E0E0F0E040E050E0D5
:1001400021C0888199818617970769F48A819B81EC
:10015000309719F09383828304C090936A0480934C
:100160006904FE0134C06817790738F44115510558
:1001700019F08417950708F4AC01FE018A819B8170
:100180009C01E9012097E9F641155105A9F1CA0141
:10019000861B970B049708F4BA01E0E0F0E02AC050
:1001A0008D919C91119784179507F9F46417750741
:1001B00081F412968D919C911397309719F0938347
:1001C000828304C090936A0480936904FD0132968F
:1001D0004CC0CA01861B970BFD01E80FF91F619304
:1001E000719302978D939C9340C0FD01828193810E
:1001F0009C01D9011097A1F6809167049091680441
:10020000892B41F48091C2019091C30190936804BD
:10021000809367044091C4015091C5014115510577
:1002200041F44DB75EB78091C0019091C101481B68
:10023000590B2091670430916804CA01821B930B0B
:100240008617970780F0AB014E5F5F4F84179507C5
:1002500050F0420F531F5093680440936704F90114
:100260006193719302C0E0E0F0E0CF01DF91CF91A4
:100270000895CF93DF93009709F450C0EC012297C3
:100280001B821A82A0916904B0916A04109709F147
:1002900040E050E0AC17BD0708F1BB83AA83FE0124
:1002A00021913191E20FF31FAE17BF0779F48D91C1
:1002B0009C911197280F391F2E5F3F4F3983288358
:1002C00012968D919C9113979B838A8341155105BA
:1002D00071F4D0936A04C093690420C012968D9182
:1002E0009C911397AD01009711F0DC01D3CFFA0177
:1002F000D383C28321913191E20FF31FCE17DF0721
:1003000069F488819981280F391F2E5F3F4FFA01C8
:10031000318320838A819B8193838283DF91CF9174
:100320000895F8940C944516FB01DC0141505040AF
:1003300048F001900D920020C9F701C01D92415074
:100340005040E0F70895FC0181E090E0019006162E
:1003500009F4CF010020D1F701970895FB015191D5
:100360005523A9F0BF01DC014D9145174111E1F77B
:1003700059F4CD010190002049F04D9140154111F3
:10038000C9F3FB014111EFCF81E090E0019708959F
:10039000482F863018F52091EA013091EB01672B48
:1003A00081F481E090E002C0880F991F4A95E2F73E
:1003B00080959095282339233093EB012093EA010F
:1003C000089581E090E002C0880F991F4A95E2F7F6
:1003D000282B392B3093EB012093EA0108950F93DA
:1003E0001F93CF93DF93B82F833008F075C090E050
:1003F0000196A82FAA0FAA0FAA0F0197A53108F0FE
:10040000A4E1482F440F440F440F71E050E0C62F81
:10041000D0E001E010E01EC0842F82508231C0F491
:10042000242F30E0F901EE50FE4F8081823080F4BD
:10043000572BF901EE0FFF1FE75FFD4F118210826E
:10044000872F90E08C239D23892B11F0118300834B
:10045000770F4F5F4A1700F3BB2361F4852F8C7F22
:10046000F8942BB1982F909592238623982B9BB9C3
:10047000789432C0B13009F5F89495B1852F8F7317
:1004800080958923962F9F739523892B85B948B131
:10049000252F30E0862F90E02823392386E03595FC
:1004A00027958A95E1F75295569556955370509534
:1004B0005423522B58B978940FC0852F8F70F8941D
:1004C00028B1982F990F990F909592238623880F22
:1004D000880F982B98B97894DF91CF911F910F9145
:1004E0000895833028F4E82FF0E0E451FE4F608354
:1004F0000895CF93DF93C4E7D2E0CE010E9421108C
:10050000239682E0C839D807C1F7DF91CF910895CB
:100510000F931F93CF93DF938B01843178F5C82F0E
:10052000D0E0FE01EE50FE4FE081E33091F0E43088
:1005300029F582508C30E0F49E0122503040C901F0
:10054000880F991F820F931F8C589D4F0E94B910DE
:100550000FC0833051F0853041F0863031F0893062
:1005600021F08A3011F08B3019F4B8010E9459093A
:10057000CC0FDD1FC75FDD4F19830883DF91CF915B
:100580001F910F910895AF92BF92DF92EF92FF9269
:100590000F931F93DF93CF930F92CDB7DEB7D82E73
:1005A0007B01082F10E0F801EE50FE4F808186306D
:1005B00061F480917102882341F06630710529F061
:1005C000109271028FEF8093C8019D2D92509983F4
:1005D0009C30B8F4E4E0EE16F10499F0C8010297FB
:1005E0005C01AA0CBB1CA80EB91E84E792E0A80E01
:1005F000B91EC5010E94A710882319F0C5010E94E9
:100600003B104D2D4E504630B8F42091EA01309108
:10061000EB0192E0E916F10409F0E0C081E090E01E
:10062000042E02C0880F991F0A94E2F7282B392B59
:100630003093EB012093EA01E981E23130F5ED2DB1
:10064000E695E695E695980127703070E114F1047F
:1006500071F4F0E0EA5FFD4F81E090E002C0880FA6
:10066000991F2A95E2F72081282B20830EC0F0E005
:10067000EA5FFD4F81E090E002C0880F991F2A9544
:10068000E2F78095208182238083F801EE0FFF1F1F
:10069000E75FFD4F11821082F2E0EF16F104E1F006
:1006A00083E0E816F1044CF4E114F10439F191E02F
:1006B000E916F10409F08BC032C0E4E0EE16F10453
:1006C00009F45DC0F4E0EF16F104CCF186E0E81621
:1006D000F10409F07CC070C0463008F08CC09981EC
:1006E000923140F48D2D60E00E94B9098D2D60E0BB
:1006F0000E94DF090E501E4F82E066C0F981F23180
:1007000008F079C08D2D60E00E94B9098D2D60E060
:100710000E94DF090E501E4FF80110826CC0F98153
:10072000F23108F068C08D2D60E00E94DF098D2D48
:1007300061E00E94B9090E501E4F81E045C0F3E010
:10074000DF1681F085E0D81669F096E0D91651F0F1
:10075000E9E0DE1639F0FAE0DF1621F08BE0D8167A
:1007600009F049C08D2D61E00E94B9098D2D60E02E
:1007700070E00E9459090E501E4F83E025C0F98198
:10078000FC30C8F5F801EE50FE4F84E08083C801CC
:1007900002977C01EE0CFF1CE80EF91E84E792E044
:1007A000E80EF91EC7010E94A710882321F5C70192
:1007B000B8010E94A0111FC09EEED90EE1E0ED1518
:1007C000D0F00E501E4F86E0F801808314C088E4FC
:1007D00093E060E071E00E94830E0DC081E090E044
:1007E000042E02C0880F991F0A94E2F78095909515
:1007F000282339231DCF0F90CF91DF911F910F91A7
:10080000FF90EF90DF90BF90AF9008951F9380917D
:100810007102882329F0109271028FEF8093C80132
:100820001092EC01109206021092EF011092ED016D
:10083000109207021092F0011092EE01109208023D
:100840001092F10110E0812F8E50863020F4812F1C
:1008500062E070E003C0812F61E070E00E94C3029B
:100860001F5F143181F71092EB011092EA011F9182
:1008700008950F931F9308E413E0C80161E171E04C
:1008800042E023E00E947E0FC80160EE48E852E09B
:100890000E94B20DC80160E94FEE51E00E94B20D16
:1008A000C80160EC48EC51E00E94B20DC80160ED57
:1008B00041E752E00E94B20DC80164EF43EC52E000
:1008C0000E94B20DC80160EF41EE55E00E94D60DC6
:1008D000C8016FEF46E054E00E94D00DC80140E02F
:1008E00051EE60E070E00E94ED0F0E9406041F913F
:1008F0000F9108951F9310E0812F8251823028F4C8
:10090000812F66E070E00E94C3021F5F1431A1F7DF
:1009100081E0809371028FEE93E00E9433131F9168
:1009200008951F93CF93DF93282F162FC82FD0E061
:10093000FE01EA5FFD4F80811823442331F4FE015C
:10094000E151FE4F8081811751F088E493E0622FDE
:10095000412F50E00E944D0DC151DE4F1883DF91B1
:10096000CF911F9108958091EC01882349F069B1DE
:100970008091060268236C7F80E040E00E94910431
:100980008091ED01882379F083B166B16295660F9D
:10099000660F607C8F73682B80910702682381E06B
:1009A00040E00E9491048091EE01882379F086B1A5
:1009B00090E08C739070959587959595879560914B
:1009C0000802682382E040E00E9491040895EF92BB
:1009D000FF920F931F93CF93DF93F82EEB01E42E3A
:1009E0008FEF6F3F780719F4C0E0D0E014C08FEEAE
:1009F00093E06F2D0E9464128FEE93E06C2F0E94A3
:100A0000E6128FEE93E00E9416138091720290918D
:100A100073020E94F2088FEE93E06F2D4E2D0E941C
:100A200026130E2D10E08FEE93E00E946E12081731
:100A3000190791F4F0925102C0935202C3E5D2E03B
:100A40000C0F1D1F05C08FEE93E00E947712899353
:100A5000C017D107C1F712C08FEE93E00E946E124B
:100A6000801791072CF488E493E06FE271E004C0F2
:100A700088E493E067E571E00E94830E82E0E80E6F
:100A800088E493E067E74E2D21E532E00E947F0D78
:100A9000DF91CF911F910F91FF90EF900895AF924A
:100AA000BF92CF92DF92EF92FF920F931F93CF935B
:100AB000DF930E94B30404C088E493E00E94CF0E49
:100AC00088E493E00E94260D892BB1F70E948B08E1
:100AD0006093310270933202809333029093340218
:100AE000A0903502B0903602C0903702D090380204
:100AF0002091C6013091C70179010027F7FC0095CC
:100B0000102F6A197B098C099D09E616F70608075C
:100B1000190708F04BC0EA0CFB1C0C1D1D1DE092D0
:100B20003502F09236020093370210933802C2EF7A
:100B3000D1E012EF1630C0F488818230A9F48091A0
:100B4000EA019091EB01012E02C0959587950A94D8
:100B5000E2F780FF09C0812F0E943709AC0188E4C9
:100B600093E0612F0E94320D1F5F2196163011F71E
:100B70008091C80187FD1AC010E00EC0F901EE0F88
:100B8000FF1FE20FF31FE75CFD4F6181808170E082
:100B900042810E94E7041F5F212F30E08091C8014D
:100BA000992787FD90958217930744F7DF91CF919E
:100BB0001F910F91FF90EF90DF90CF90BF90AF907B
:100BC0000895BF92CF92DF92EF92FF920F931F93FF
:100BD000CF93DF93162FEA018F3609F44FC1803788
:100BE00050F48B3609F46AC18D3609F4D3C18936C5
:100BF00009F03FC222C2863769F0873720F4803778
:100C000009F037C2E4C0883709F4C7C08A3709F051
:100C100030C219C1898185FF05C088E493E06EE781
:100C200071E054C068818871883059F1893018F4B6
:100C3000882341F01EC2803109F440C0883109F098
:100C400018C264C08FEE93E00E94641202E00EC0EE
:100C5000FE01E00FF11D6181679566276795808130
:100C6000680F8FEE93E00E94E6120E5F011780F38B
:100C70008FEE93E00E94161386E490E00E94F20843
:100C8000F8C19B818A81163071F4979599279795C1
:100C9000980F4D814795442747958C81480F862FA3
:100CA000692F70E008C0979599279795980F862F20
:100CB0006FEF7FEF492F0E94E704DBC18091C801ED
:100CC00087303CF088E493E06AEA71E00E94830E8A
:100CD000D0C18F5F8093C801992787FD9095FC0153
:100CE000EE0FFF1FE80FF91FE75CFD4F60838B815C
:100CF0008795882787959A81890F81838D8187952C
:100D0000882787959C81890F8283B3C15091C80140
:100D1000151634F420E0C52FDD27C7FDD09511C08E
:100D20008FEF8093C801A5C1FC01EE0FFF1FE80FF4
:100D3000F91FE75CFD4F6083662311F0422F24C04A
:100D40002F5F822F90E0C817D90774F740E01CC0CE
:100D50004830C8F4C9010196D901AA0FBB1FA20FE0
:100D6000B31FA75CBD4FFC01EE0FFF1FE80FF91F7B
:100D7000E75CFD4F80818C93808111968C93119755
:100D8000828112968C934F5F242F30E0C217D307D5
:100D9000FCF651505093C8016CC18981682F70E0F6
:100DA0007695762F6627779567958881680F711DF0
:100DB0006115710521F07093730260937202809146
:100DC0007102882309F055C10E947A0452C165302E
:100DD00008F44FC1F880C980EA80BB80DC808F2D89
:100DE00082508C3008F045C10F2D10E0C8010297E9
:100DF000EC01CC0FDD1FC80FD91FCC58DD4FCE0141
:100E00000E94A710882319F0CE010E943B104E2D9E
:100E100050E05695542F4427579547954C0D511D3A
:100E20002D2D30E03695322F2227379527952B0D23
:100E3000311DCE01B8010E9421118F2D64E070E0B8
:100E40000E94C30216C1623008F413C1898190E088
:100E50009695982F8827979587952881820F911DC1
:100E60009093C7018093C6010A970CF002C18AE0F3
:100E700090E09093C7018093C601FBC0623008F4F4
:100E8000F8C08981682F70E01230A1F08A8190E06B
:100E90009695982F882797958795682B792B1330EF
:100EA00049F02B81922F9295990F990F907C80E0B9
:100EB000682B792B88810E948802DBC089E293E04D
:100EC00060EF0E94B60B89E293E06CE60E94B60BDD
:100ED00000E01EEF16C01231A0F489E293E060E05A
:100EE0000E94B60B89E293E061E00E94B60B89E2B2
:100EF00093E061E00E94B60B89E293E061E00E941A
:100F0000B60B802F8E50863050F489E293E062E079
:100F10000E94B60B89E293E06AE00E94B60B0330B0
:100F200051F0053041F0063031F0093021F00A303F
:100F300011F00B3051F489E293E063E00E94B60BAC
:100F400089E293E068E00E94B60B1C3050F489E21D
:100F500093E064E00E94B60B89E293E06EE00E94A9
:100F6000B60B802F8251823050F489E293E066E024
:100F70000E94B60B89E293E061E00E94B60B89E221
:100F800093E06FE70E94B60B0F5F1F5F043109F01B
:100F9000A2CF6AC0662309F46CC0088189E293E09D
:100FA00060EF0E94B60B89E293E06EE60E94B60BFA
:100FB00089E293E0602F0E94B60B043108F054C020
:100FC000C02FD0E0FE01EE50FE4F89E293E0608139
:100FD0000E94B60B8E01000F111F075F1D4FF80115
:100FE00060816F7789E293E00E94B60BF80160811F
:100FF0007181CB018078892B49F0660F672F661FBE
:10100000770B6F7789E293E00E94B60BCC0FDD1F60
:10101000C75FDD4F28813981C9018070907C892BA1
:1010200019F1330F220B330F322F221F622F6F77EC
:1010300089E293E00E94B60B17C089E293E060EF6B
:101040000E94B60B89E293E06AE60E94B60B02EFBB
:10105000063010F06FE701C0602F89E293E00E9434
:10106000B60B0F5F0630A1F789E293E067EF0E94AD
:10107000B60BDF91CF911F910F91FF90EF90DF9012
:10108000CF90BF9008951F920F920FB60F92112428
:101090002F933F938F939F93AF93BF9380919C0225
:1010A00090919D02A0919E02B0919F023091A0026A
:1010B0000196A11DB11D232F2D5F2D3720F02D5737
:1010C0000196A11DB11D2093A00280939C029093D4
:1010D0009D02A0939E02B0939F02809198029091EE
:1010E0009902A0919A02B0919B020196A11DB11D97
:1010F0008093980290939902A0939A02B0939B02D6
:10110000BF91AF919F918F913F912F910F900FBE03
:101110000F901F9018958FB7F89420919C023091F2
:101120009D0240919E0250919F028FBFB901CA015A
:1011300008959B01AC017FB7F8948091980290913B
:101140009902A0919A02B0919B0266B5A89B05C036
:101150006F3F19F00196A11DB11D7FBFBA2FA92FB6
:10116000982F8827860F911DA11DB11D62E0880F61
:10117000991FAA1FBB1F6A95D1F7BC012DC0FFB7ED
:10118000F8948091980290919902A0919A02B0915E
:101190009B02E6B5A89B05C0EF3F19F00196A11D83
:1011A000B11DFFBFBA2FA92F982F88278E0F911D31
:1011B000A11DB11DE2E0880F991FAA1FBB1FEA9570
:1011C000D1F7861B970B885E9340C8F221503040C0
:1011D0004040504068517C4F211531054105510573
:1011E00071F60895019739F0880F991F880F991F9C
:1011F00002970197F1F70895789484B5826084BDD1
:1012000084B5816084BD85B5826085BD85B581600A
:1012100085BDEEE6F0E0808181608083E1E8F0E06A
:101220001082808182608083808181608083E0E899
:10123000F0E0808181608083E1EBF0E08081846078
:101240008083E0EBF0E0808181608083EAE7F0E07A
:1012500080818460808380818260808380818160DE
:1012600080838081806880831092C1000895982FC8
:101270008E3008F09E5097708091C9018295880F3A
:10128000880F807C892B80937C0080917A00806419
:1012900080937A0080917A0086FDFCCF20917800BF
:1012A00040917900942F80E030E0282B392BC90140
:1012B00008951F93CF93DF93182FEB0161E00E94F5
:1012C000B909209709F44AC0CF3FD10509F449C0B4
:1012D000E12FF0E0E255FF4F84918330C1F084307C
:1012E00028F4813051F08230B1F50CC0863019F10C
:1012F000873049F1843079F514C084B5806884BDA5
:10130000C7BD33C084B5806284BDC8BD2EC0809186
:101310008000806880938000D0938900C09388000B
:1013200024C080918000806280938000D0938B00E5
:10133000C0938A001AC08091B00080688093B0008A
:10134000C093B30012C08091B00080628093B0005F
:10135000C093B4000AC0C038D1051CF4812F60E0EE
:1013600002C0812F61E00E94DF09DF91CF911F91C0
:101370000895482F50E0CA0186569F4FFC012491E2
:101380004A575F4FFA0184918823C1F0E82FF0E0BB
:10139000EE0FFF1FE859FF4FA591B491662341F46A
:1013A0009FB7F8948C91209582238C939FBF0895CA
:1013B0009FB7F8948C91822B8C939FBF0895482FF0
:1013C00050E0CA0182559F4FFC012491CA01865604
:1013D0009F4FFC0194914A575F4FFA013491332398
:1013E00009F440C0222351F1233071F0243028F455
:1013F0002130A1F0223011F514C02630B1F0273091
:10140000C1F02430D9F404C0809180008F7703C0EC
:10141000809180008F7D8093800010C084B58F778D
:1014200002C084B58F7D84BD09C08091B0008F77E4
:1014300003C08091B0008F7D8093B000E32FF0E077
:10144000EE0FFF1FEE58FF4FA591B4912FB7F89400
:10145000662321F48C919095892302C08C91892B6D
:101460008C932FBF089508951F920F920FB60F927D
:1014700011242F933F934F938F939F93EF93FF9359
:101480004091C6002091E1023091E2022F5F3F4F70
:101490002F7330708091E3029091E402281739078E
:1014A00059F0E091E102F091E202EF55FD4F4083E7
:1014B0003093E2022093E102FF91EF919F918F918F
:1014C0004F913F912F910F900FBE0F901F90189545
:1014D000E0913503F0913603E05CFF4F81919191EB
:1014E00020813181821B930B8F739070892B11F0B7
:1014F0000E94330A08951F920F920FB60F92112483
:101500002F933F934F935F936F937F938F939F930B
:10151000AF93BF93EF93FF93209125033091260360
:1015200080912703909128032817390731F480917F
:10153000C1008F7D8093C10016C0E0912703F09118
:101540002803EB51FD4F40818091270390912803A0
:10155000019660E470E00E94EF1590932803809359
:1015600027034093C600FF91EF91BF91AF919F91E8
:101570008F917F916F915F914F913F912F910F903C
:101580000FBE0F901F901895AF92BF92DF92EF920F
:10159000FF920F931F93CF93DF93EC017A018B019E
:1015A000DD24403081EE580780E0680780E078074E
:1015B00011F0DD24D39491E0A92EB12CEC89FD89A2
:1015C000DD2069F0C5010E8C02C0880F991F0A94B6
:1015D000E2F7808360E079E08DE390E005C010825F
:1015E00060E874E88EE190E0A80197010E9402167D
:1015F00021503040404050405695479537952795AB
:1016000080E12030380720F0DD2011F0DD24D6CF36
:10161000E889F9893083EA89FB892083EE89FF898B
:10162000408121E030E0C9010A8C02C0880F991F77
:101630000A94E2F7482B4083EE89FF894081C90173
:101640000B8C02C0880F991F0A94E2F7482B408345
:10165000EE89FF894081C9010C8C02C0880F991F57
:101660000A94E2F7482B4083EE89FF8980810D8C34
:1016700002C0220F331F0A94E2F72095282320830B
:10168000DF91CF911F910F91FF90EF90DF90BF906E
:10169000AF900895DC011C96ED91FC911D97E05CE4
:1016A000FF4F2191319180819181281B390B2F733C
:1016B0003070C9010895DC011C96ED91FC911D97D5
:1016C000E05CFF4F20813181E054F040DF01AE5BF0
:1016D000BF4F8D919C9111972817390719F42FEF5F
:1016E0003FEF07C08D919C91E80FF91F8081282F53
:1016F00030E0C9010895DC011C96ED91FC911D9725
:10170000E05CFF4F20813181E054F040DF01AE5BAF
:10171000BF4F8D919C9111972817390719F42FEF1E
:101720003FEF10C08D919C911197E80FF91F208118
:101730008D919C91119701968F73907011969C9347
:101740008E9330E0C9010895FC0186859785DC0100
:10175000A05CBF4FFC01EE5BFF4F2D913C911197B8
:101760008081918128173907C1F70895CF93DF93BE
:10177000EC01462FEE85FF85E05CFF4F8081918173
:10178000E054F040019660E470E00E94EF159C0187
:10179000DF01AE5BBF4F8D919C91119728173907E0
:1017A000D1F3E05CFF4F80819181E054F040E80F7D
:1017B000F91F4083EE85FF85E05CFF4F3183208376
:1017C000EE89FF89208181E090E00D8C02C0880FB6
:1017D000991F0A94E2F7282B208381E090E0DF91A3
:1017E000CF91089510922C0310922B0388EE93E072
:1017F000A0E0B0E080932D0390932E03A0932F03DD
:10180000B09330038EEC91E090932A0380932903E8
:1018100081EA92E0909336038093350385EE92E05F
:10182000909338038093370385EC90E090933A03CC
:101830008093390384EC90E090933C0380933B03C6
:1018400080EC90E090933E0380933D0381EC90E028
:101850009093400380933F0386EC90E09093420383
:101860008093410384E08093430383E080934403A7
:1018700087E08093450385E08093460381E0809371
:1018800047030895CF93DF930E94FC080E94390418
:10189000C8E6DAE00E944F052097E1F30E94680A4B
:1018A000F9CFCF92DF92EF92FF920F931F93CF93D6
:1018B000DF937C016B018A01C0E0D0E00FC0D6014C
:1018C0006D916D01D701ED91FC910190F081E02DBA
:1018D000C7010995C80FD91F015010400115110506
:1018E00071F7CE01DF91CF911F910F91FF90EF9093
:1018F000DF90CF900895EF92FF920F931F937C019A
:101900008B01DC01ED91FC91A081B1816F772D916C
:101910003C91CF01F9010995D701ED91FC91A0818E
:10192000B181000F012F001F110B0F772D913C91FA
:10193000CF01602FF90109951F910F91FF90EF9052
:101940000895FC010190F081E02DA081B1812D91DD
:101950003C91CF0160EFF90109950895FC010190D8
:10196000F081E02DA081B1812D913C91CF0167EFF5
:10197000F901099508950F931F938C01DC01ED91F6
:10198000FC91A081B1812D913C91CF0169EFF901CA
:101990000995D801ED91FC91A081B1812D913C91E7
:1019A000CF0162E0F9010995D801ED91FC91A08188
:1019B000B1812D913C91CF0163E0F90109951F910F
:1019C0000F9108951F93CF93DF93EC018A818823B1
:1019D000C9F1CE010E94A10CE881F981A081B181F9
:1019E0002D913C91CF0169E7F9010995E881F981D1
:1019F000A081B1812B813C814D915C91CF01F90196
:101A00006081FA010995E881F981A081B1812B817A
:101A10003C814D915C91CF01F9016181FA010995F9
:101A200012E00AC0EB81FC81E10FF11D6081CE0163
:101A300070E00E947B0C1F5F8A81181798F3CE011B
:101A40000E94AE0CDF91CF911F910895FC01A081FF
:101A5000B181ED91FC9111970480F581E02DCD01CC
:101A600009950895EF92FF920F931F938C017A01CD
:101A7000DC01ED91FC91A081B1816F70606E2D91C0
:101A80003C91CF01F9010995C801B7010E947B0C77
:101A90001F910F91FF90EF900895EF92FF920F9397
:101AA0001F937C018A01DC01ED91FC91A081B18141
:101AB0006F7060692D913C91CF01F9010995D701B3
:101AC000ED91FC91A081B181602F6F772D913C91B8
:101AD000CF01F9010995D701ED91FC91A081B18168
:101AE000000F012F001F110B2D913C91CF01602F92
:101AF000F90109951F910F91FF90EF900895DF92E2
:101B0000EF92FF920F931F93CF93DF93EC01162F69
:101B1000D42E022FF32E0E94A10CE881F981A0811E
:101B2000B1812D913C91CF01612FF9010995202FB1
:101B30003F2DC9017C0110E008C0F70161917F01D0
:101B4000CE0170E00E947B0C1F5F1D15B0F3CE012B
:101B50000E94AE0CDF91CF911F910F91FF90EF90FB
:101B6000DF900895FC01603DA9F0613D28F46039E3
:101B700059F0603CA1F40BC0603E19F0643F79F469
:101B80000CC054A743A7089556A745A7089550AB86
:101B900047A7089552AB41AB089554AB43AB0895AA
:101BA000FC016F3F11F456AB45AB0895FC0152AFF9
:101BB00041AF0895FC01158216821782DC0180E096
:101BC00018961C9218978F5F11968032C9F710A64D
:101BD00012A611A605A8F6A9E02D309709F00995DF
:101BE0000895FC017183608312820E94DA0D0895CA
:101BF00088E493E069E273E00E94F10D08954F924A
:101C00005F926F927F928F929F92AF92BF92CF928C
:101C1000DF92EF92FF920F93DF93CF9300D0CDB777
:101C2000DEB72B017A013A8329838DE061E00E94BF
:101C3000B90900E089819A813C01882477FC80946D
:101C4000982C5701CC24B7FCC094DC2C11C0C401E3
:101C5000B3010E9499088DE061E00E94DF09C6018E
:101C6000B5010E9499088DE060E00E94DF090F5FD6
:101C7000802F90E08415950554F30F900F90CF912D
:101C8000DF910F91FF90EF90DF90CF90BF90AF90DA
:101C90009F908F907F906F905F904F9008950F93DB
:101CA0001F938C018DE061E00E94B909C80162E0D8
:101CB00070E048E250E022ED30E00E94FF0D6AEF54
:101CC00070E080E090E00E949908C80163E070E055
:101CD00048E250E022ED30E00E94FF0D6DE770E039
:101CE00080E090E00E9499081F910F9108959A0159
:101CF000FA0101900020E9F73197E41BF50B4E2F14
:101D00000E947F0D0895AB0161E70E94770E089550
:101D10001F93CF93DF93EC018885813731F08937AA
:101D200089F5CE010E94E20C36C08FA998AD892BAF
:101D300091F189A59AA5019762E070E00E94EF15E4
:101D4000162F862F90E00E948F00AC01DC0121E06D
:101D500030E011C0FE01E20FF11D90859C932F5FD2
:101D6000FE01E20FF11D8085879588278795890FF1
:101D70008D932F5F3F5F311768F3EFA9F8ADCA016C
:101D8000099509C0E9ADFAAD309729F069A5615010
:101D90002996AE010995DF91CF911F910895CF93B8
:101DA000DF93EC01A881B981ED91FC911197068038
:101DB000F781E02DCD010995AC0188A5882391F02C
:101DC000473F510529F418A6CE010E94880E93C002
:101DD00089A59AA5FE01E80FF91F408701969AA7E9
:101DE00089A789C08D81882309F446C040385105F0
:101DF0000CF042C081508D83FE01E80FF11D408739
:101E0000882309F078C08E81882309F474C0803D4E
:101E100049F1813D28F4803959F0803C59F51FC0C3
:101E2000803E19F0843F31F513C0EBA5FCA502C03C
:101E3000EDA5FEA53097F1F0688570E07695762FD8
:101E40006627779567958985680F711D8F8111C009
:101E5000EBA9FCA9309771F06885898509C0EFA5C9
:101E6000F8A902C0E9A9FAA9309721F068858F8105
:101E700070E009951E823FC0403F510514F09A0161
:101E800006C09A01207F3070842F8F708F83203E90
:101E90003105F1F0213E310554F4203C3105D1F0FB
:101EA000203D3105B9F02039310529F511C0243F15
:101EB000310571F0253F310524F4203F3105D9F477
:101EC0000DC0293F310599F02F3F3105A1F40BC01A
:101ED00082E001C081E08D832E830DC081E088A760
:101EE0001AA619A608C0CE010E94DA0D04C088E423
:101EF00093E00E94BB0CDF91CF910895AF92BF9207
:101F0000CF92DF92EF92FF920F931F93CF93DF93C5
:101F10008C01D62EC72EB42EA22E862F972F6BEBB8
:101F200071E00E94AE01EC018D2D9C2D6FE270E0FE
:101F30000E94A301209779F07C010894E11CF11C18
:101F4000E114F10441F09E012E5F822F8E19D80119
:101F500012968C930FC0AD2DBC2DFD010190002079
:101F6000E9F7ED19EF5FD8011296EC932D2D3C2D7A
:101F7000C9017C01F801828190E00E948F00FC0180
:101F8000D80114969C938E93139712968C91129766
:101F9000E80FF11D10821396ED91FC911497B08219
:101FA0001396ED91FC911497A18213968D919C91BB
:101FB000149712964C9150E0425050400296B7014F
:101FC0000E949401DF91CF911F910F91FF90EF90AC
:101FD000DF90CF90BF90AF9008950F931F938C0127
:101FE00089E293E00E94C40AD801ED91FC918091AE
:101FF0002B0390912C039383828380912D039091E6
:102000002E03A0912F03B091300384839583A68380
:10201000B7838091310390913203A0913303B09143
:10202000340380879187A287B387C8010E944F0E2F
:10203000C8010E94BB0CC8010E94E20C1F910F91C5
:102040000895FC01809183038C3090F480838F5F2E
:1020500080938303815090E0FC01EE0FFF1FE80F97
:10206000F91FEC57FC4F88EB9BE092838183089526
:102070008FEF80830895DC018C9190E0FC01EE0FDE
:10208000FF1FE80FF91FEC57FC4F80818F7B808387
:102090008C916CE00E94CF1590E0AC01440F551F6D
:1020A000480F591F440F551F440F551F20E030E0C3
:1020B000C901840F951FFC01EE0FFF1FE80FF91FE8
:1020C000EC57FC4F808186FD05C02F5F3F4F2C30C1
:1020D000310571F70895FC0120812C30B8F581811C
:1020E000992787FD909548E850E0481B590B440F0D
:1020F000551F440F551F6417750784F08281992777
:1021000087FD909548E552E0481B590B440F551F39
:10211000440F551F641775070CF4AB014250504033
:10212000CA01AA2797FDA095BA2F880F991FAA1F49
:10213000BB1F4FB7F89430E0F901EE0FFF1FE20F1D
:10214000F31FEC57FC4F928381834FBF0895FC012E
:10215000808190E0FC01EE0FFF1FE80FF91FEC57A4
:10216000FC4F8081829586958695817009F081E08B
:102170000895AF92BF92CF92DF92EF92FF920F93AA
:102180001F93CF93DF93EC019B0182E060327807CD
:102190000CF048C077FF03C020E030E005C0653B8D
:1021A000710514F024EB30E000D000D0B90188278D
:1021B00077FD8095982F2981332727FD3095E8E812
:1021C000AE2EB12CA21AB30AAA0CBB1CAA0CBB1CC3
:1021D000CC24B7FCC094DC2CEA81FF27E7FDF09506
:1021E00028E532E02E1B3F0B220F331F220F331F37
:1021F000442737FD4095542FEDB7FEB72183328336
:102200004383548320E030E040E050E004EBE02ED4
:10221000F12C012D112D0E9467159B010F900F903D
:102220000F900F90CE01B9010E946B10DF91CF91FA
:102230001F910F91FF90EF90DF90CF90BF90AF90E4
:102240000895CF92DF92EF92FF921F93CF93DF9387
:10225000EC01162F7A01690188818C3008F064C086
:10226000862F61E00E94B909888190E0FC01EE0FA1
:10227000FF1FE80FF91FEC57FC4F1F738081807C14
:10228000812B808380E292E08E199F0964E070E0E8
:102290000E94EF15698380E699E08C199D0964E03E
:1022A00070E00E94EF156A83A8818A2F6CE00E947B
:1022B000CF15682F70E0AB01440F551F460F571F15
:1022C000440F551F440F551F20E030E0C901840F13
:1022D000951FFC01EE0FFF1FE80FF91FEC57FC4F95
:1022E000808186FD15C02F5F3F4F2C30310571F77F
:1022F00024C01092800082E08093810010928500BB
:1023000010928400B19A80916F00826080936F0078
:102310008A2F90E0FC01EE0FFF1FE80FF91FEC572A
:10232000FC4F8081806480838881DF91CF911F91F1
:10233000FF90EF90DF90CF900895672BD1F2E8CF18
:1023400040E252E020E639E00E94211108951F92F8
:102350000F920FB60F9211242F933F934F935F93D9
:102360006F937F938F939F93AF93BF93EF93FF935D
:102370008091A80387FF05C0109285001092840009
:102380002BC02091A803332727FD3095809183032C
:1023900090E02817390704F58091A803992787FD55
:1023A0009095FC01EE0FFF1FE80FF91FEC57FC4F53
:1023B000808186FF11C08091A803992787FD9095A1
:1023C000FC01EE0FFF1FE80FF91FEC57FC4F808157
:1023D0008F7360E00E94DF098091A8038F5F809374
:1023E000A8032091A803332727FD3095809183030C
:1023F00090E0281739070CF04EC08091A8038C306C
:102400000CF049C020918400309185008091A80390
:10241000992787FD9095FC01EE0FFF1FE80FF91F2C
:10242000EC57FC4F81819281280F391F309389002E
:10243000209388008091A803992787FD9095FC013F
:10244000EE0FFF1FE80FF91FEC57FC4F808186FF4E
:102450002AC08091A803992787FD9095FC01EE0F73
:10246000FF1FE80FF91FEC57FC4F80818F7361E06D
:102470000E94DF0918C080E49CE905C080918400B7
:1024800090918500049690938900809388008FEF47
:102490008093A80308C080918400909185008454A3
:1024A0009C4948F3EBCFFF91EF91BF91AF919F9182
:1024B0008F917F916F915F914F913F912F910F90ED
:1024C0000FBE0F901F90189581E08093EE036093EC
:1024D000CB031092EC031092ED0308952091CA03F0
:1024E00030E08091C903281B3109C901089540914A
:1024F000C9038091CA03481718F02FEF3FEF0AC0B5
:10250000E42FF0E0E755FC4F8081282F30E04F5F4B
:102510004093C903C9010895E091C9038091CA039A
:10252000E81718F0EFEFFFEF06C0F0E0E755FC4FBB
:102530008081E82FF0E0CF01089508951092F20312
:102540001092F10388EE93E0A0E0B0E08093F303F3
:102550009093F403A093F503B093F6038EED91E00E
:102560009093F0038093EF030895CF92DF92EF9260
:10257000FF920F931F93CF93DF937C016B018A012E
:102580008091EE038823A1F0C0E0D0E00DC0D70118
:10259000ED91FC91D601AC0FBD1F0190F081E02DB3
:1025A000C7016C9109952196C017D10780F304C02B
:1025B000CB01642F0E94B813C801DF91CF911F9106
:1025C0000F91FF90EF90DF90CF900895DF93CF931E
:1025D0000F92CDB7DEB7FC0169838091EE038823AB
:1025E000C9F08091ED03803238F081E090E0938370
:1025F000828320E030E015C08091EC03E82FF0E00A
:10260000E453FC4F998190838F5F8093EC03809318
:10261000ED0305C0CE01019661E00E94B81321E0F0
:1026200030E0C9010F90CF91DF9108958091CB03E5
:102630006CEC73E04091ED0321E00E947513109261
:10264000EC031092ED031092EE030895413208F06E
:1026500040E2862F69EA73E00E943E131092C9039C
:102660008093CA0308951092C9031092CA0310926E
:10267000EC031092ED030E944E150895982F4132FD
:1026800010F040E030C08091FB038823E1F781E047
:102690008093FB038FEF80936604109221044150D6
:1026A000409322044F5F990F91609093FC0385EE55
:1026B0008093BC008091FB038130E1F38091210481
:1026C000841710F44091210420E030E00AC0FB019F
:1026D000E20FF31FD901AF5FBB4F8C9180832F5F57
:1026E0003F4F2417A0F3842F08951F93582F122FC4
:1026F000413210F081E03AC08091FB038823E1F77A
:1027000082E08093FB038FEF809366041092210494
:1027100040932204A1E0B4E0FB0102C081918D93BB
:102720008E2F861B8417D0F3852F90E0880F991F7A
:102730008093FC0385EE8093BC00112321F08091EF
:10274000FB038230E1F3809166048F3F11F480E057
:102750000DC080916604803211F482E007C0809140
:102760006604803311F084E001C083E01F91089576
:10277000482F613210F081E008958091FB0384308E
:1027800011F082E0089560934404A3E2B4E0842F42
:102790009C01F90102C081918D938E2F841B8617B5
:1027A000D0F380E008951F920F920FB60F9211247C
:1027B0002F933F934F935F936F937F938F939F9349
:1027C000AF93BF93EF93FF938091B90090E0887F20
:1027D00090708036910509F4DCC081369105CCF506
:1027E0008832910509F47BC089329105B4F48031B7
:1027F000910509F46FC0813191053CF4009709F40B
:1028000031C1089709F039C165C08831910509F4D3
:1028100066C0809709F031C17DC08034910509F40C
:102820009FC08134910544F48033910509F47DC043
:10283000C89709F022C184C08035910509F484C08D
:102840008835910509F491C08834910509F015C1C6
:1028500098C08839910509F4FDC089399105ECF4D7
:102860008837910509F495C0893791054CF488366D
:10287000910509F48EC08037910509F0FEC089C02A
:102880008838910509F4E6C08039910509F487C0BC
:102890008038910509F0F1C082C0803B910509F4B0
:1028A000B0C0813B91054CF4803A910509F489C090
:1028B000883A910509F0E1C0A4C0803C910509F473
:1028C000CDC0883C910509F4C9C0883B910509F049
:1028D000D4C0ACC08091FC038093BB00B9C0909180
:1028E000210480912204981768F490912104E92F23
:1028F000F0E0EF5FFB4F80818093BB009F5F909380
:102900002104A6C085ED8093BC008091BC0084FDAD
:10291000FCCFB1C080E28093660485ED8093BC005B
:102920008091BC0084FDFCCFA6C080E38093660448
:1029300085ED8093BC008091BC0084FDFCCF9BC0E2
:1029400088E3809366048AC0809121049091BB0043
:10295000E82FF0E0EF5FFB4F90838F5F80932104BF
:10296000909121048091220471C080912104909162
:10297000BB00E82FF0E0EF5FFB4F90838F5F809309
:10298000210485ED8093BC008091BC0084FDFCCFC8
:1029900072C083E08093FB031092650459C080915C
:1029A0006504803208F056C0809165049091BB00A8
:1029B000E82FF0E0EB5BFB4F90838F5F8093650423
:1029C00047C080916504803230F4E0916504F0E006
:1029D000EB5BFB4F108285ED8093BC008091BC00C7
:1029E00084FDFCCF1092FB0360916504E091FF032E
:1029F000F091000485E494E070E00995109265047C
:102A00002DC084E08093FB03109243041092440491
:102A1000E091FD03F091FE03099580914404882321
:102A200029F481E08093440410922304909143049C
:102A3000E92FF0E0ED5DFB4F80818093BB009F5F4D
:102A4000909343049091430480914404981710F4A8
:102A500085EC01C085E88093BC000FC085EC8093B5
:102A6000BC0009C01092660485ED8093BC00809183
:102A7000BC0084FDFCCF1092FB03FF91EF91BF914E
:102A8000AF919F918F917F916F915F914F913F9106
:102A90002F910F900FBE0F901F9018951092FB036F
:102AA00082E161E00E94DF0983E161E00E94DF09C9
:102AB000E9EBF0E080818E7F808380818D7F808351
:102AC00088E48093B80085E48093BC0008952F9239
:102AD0003F924F925F926F927F928F929F92AF92AE
:102AE000BF92CF92DF92EF92FF920F931F93DF93EB
:102AF000CF93CDB7DEB73B014C0119012A016D8997
:102B00007E898F89988D6A197B098C099D09621AC3
:102B1000730A840A950AA40193010E94B015E21871
:102B2000F30804091509A80197010E9424162A0D2B
:102B30003B1D4C1D5D1DB901CA01CF91DF911F9155
:102B40000F91FF90EF90DF90CF90BF90AF909F904C
:102B50008F907F906F905F904F903F902F9008954F
:102B6000629FD001739FF001829FE00DF11D649F71
:102B7000E00DF11D929FF00D839FF00D749FF00DFD
:102B8000659FF00D9927729FB00DE11DF91F639F9E
:102B9000B00DE11DF91FBD01CF0111240895991B4E
:102BA00079E004C0991F961708F0961B881F7A9544
:102BB000C9F780950895AA1BBB1B51E107C0AA1F46
:102BC000BB1FA617B70710F0A61BB70B881F991FCE
:102BD0005A95A9F780959095BC01CD01089597FB72
:102BE000092E07260AD077FD04D0E5DF06D00020A5
:102BF0001AF4709561957F4F0895F6F79095819539
:102C00009F4F0895A1E21A2EAA1BBB1BFD010DC008
:102C1000AA1FBB1FEE1FFF1FA217B307E407F5078C
:102C200020F0A21BB30BE40BF50B661F771F881F68
:102C3000991F1A9469F760957095809590959B01FE
:102C4000AC01BD01CF01089597FB092E05260ED0DA
:102C500057FD04D0D7DF0AD0001C38F450954095BA
:102C6000309521953F4F4F4F5F4F0895F6F7909560
:102C70008095709561957F4F8F4F9F4F0895EE0F10
:0E2C8000FF1F0590F491E02D0994F894FFCF0A
:102C8E00556E6B6E6F776E2070696E206D6F64651A
:102C9E00006275696C642D636C692F5374616E6488
:102CAE006172644669726D6174612E637070004961
:102CBE0032432052656164204572726F723A20541D
:102CCE006F6F206D616E7920627974657320726505
:102CDE0063656976656400493243205265616420FC
:102CEE004572726F723A20546F6F2066657720625C
:102CFE007974657320726563656976656400313039
:102D0E002D6269742061646472657373696E6720E5
:102D1E006D6F6465206973206E6F74207965742001
:102D2E00737570706F7274656400746F6F206D616F
:102D3E006E792071756572696573002E637070000F
:102D4E0020006B0400001300FF0100000000B60B12
:102D5E00510C4A0B7B0B5B0BA40B00000000E61220
:0A2D6E00B5126E1277128C129D123E
:00000001FF
